:020000041001E9
:1000000000300030272D0110FD2C0110FD2C0110B7
:1000100000000000000000000000000000000000E0
:10002000000000000000000000000000FD2C011096
:100030000000000000000000FD2C0110FD2C01104C
:10004000FD2C0110FD2C0110FD2C0110FD2C0110C8
:10005000FD2C0110FD2C0110FD2C0110FD2C0110B8
:10006000FD2C0110FD2C0110FD2C0110FD2C0110A8
:10007000FD2C0110FD2C0110FD2C0110FD2C011098
:10008000FD2C0110FD2C0110FD2C0110FD2C011088
:10009000FD2C0110FD2C0110FD2C0110FD2C011078
:1000A000FD2C0110FD2C0110FD2C0110FD2C011068
:1000B000FD2C0110FD2C0110FD2C0110FD2C011058
:1000C000FD2C0110FD2C0110FD2C0110FD2C011048
:1000D000FD2C0110FD2C0110FD2C0110FD2C011038
:1000E000FD2C0110FD2C0110FD2C0110FD2C011028
:1000F000FD2C0110FD2C0110FD2C0110FD2C011018
:10010000FD2C0110FD2C0110FD2C0110FD2C011007
:10011000FD2C0110FD2C0110FD2C0110FD2C0110F7
:10012000FD2C0110FD2C0110FD2C0110FD2C0110E7
:10013000FD2C0110FD2C0110FD2C0110FD2C0110D7
:10014000FD2C0110FD2C0110FD2C0110FD2C0110C7
:10015000FD2C0110FD2C0110FD2C01109D2C011017
:10016000FD2C0110FD2C0110FD2C0110FD2C0110A7
:10017000FD2C0110FD2C0110FD2C0110FD2C011097
:10018000FD2C0110FD2C0110FD2C0110FD2C011087
:10019000FD2C0110FD2C0110FD2C0110FD2C011077
:1001A000FD2C0110FD2C0110FD2C0110FD2C011067
:1001B000FD2C0110FD2C0110FD2C0110FD2C011057
:1001C000FD2C0110FD2C0110FD2C0110FD2C011047
:1001D000FD2C0110FD2C011000F002F800F0B5F824
:1001E0000CA030C8083824182D18671EA246AB464C
:1001F00054465D46AC4201D100F0A7F87E460F3E62
:10020000B6460FCC0126334200D0FB1A3343A24638
:10021000AB46184748970000689700000023002469
:1002200000250026103A01D378C1FBD8520700D32D
:1002300030C100D50B60704710B56E2902D100F0B7
:100240001FFF10BD702902D100F0DDFA10BD662934
:1002500002D107F0FBFF10BD652902D107F0F6FFC0
:1002600010BD672902D107F0F1FF10BD612902D14D
:1002700007F0F4FF10BD03681B0A01D38023194364
:10028000692902D100F012FA10BD642902D100F0F0
:100290000DFA10BD752902D100F008FA10BD6F29C2
:1002A00002D101F0CFF910BD782902D100F098FAFF
:1002B00010BDE92902D100F02FFA10BDE42902D1C6
:1002C00000F02AFA10BDF52902D100F025FA10BD80
:1002D000EF2902D101F0C2F910BDF82902D100F0D6
:1002E0008DFA10BD0368DB0901D38023194363290C
:1002F00002D101F006F910BD732902D101F009F90C
:1003000010BDE32902D101F0A4FE10BDF32902D1F2
:1003100001F0A7FE10BD002010BD1FB50098019987
:1003200000F0D3FD00F0B4FD04000020002107F030
:1003300061FF401C60600020002107F071FFE06059
:1003400001F052FB00F08CFD1FBD0648854603B44A
:1003500005F0E4FA03BC02F071FA02F085FA05F048
:100360000BFE00000030003070B505460C46164606
:1003700002E00FCC0FC5103E102EFAD2082E02D389
:1003800003CC03C5083E042E07D301CC01C5361F9C
:1003900003E021782970641C6D1C761EF9D270BDB3
:1003A0007046F0477047000010B500F071FD001D69
:1003B00010BD00BF417E000000487047143300307C
:1003C00070B5064600F060FD056830460B30C40885
:1003D000E400B44201D8002070BD68682A460028B5
:1003E00018D00168A14211D30B46214608318B4237
:1003F00008D3436801194B6003681B1B0B605160F5
:10040000046001E041685160001D70BD0246406813
:100410000028E6D12146284600F042FD0028DCD124
:1004200070BD70B50446051F00F02EFD0068002C5D
:100430001AD0446801E020466468002C01D0AC4228
:10044000F9D301680A18AA4204D12A680546891816
:10045000016000E0456028684119A14205D161684A
:10046000696021684018286070BD6C6070BD10B56F
:10047000202A04DB0146203A9140002010BD914023
:1004800020239C1A0346E3401943904010BD10B549
:10049000202A04DB0846203AD040002110BD0B463C
:1004A0002024D340D040A21A91400843194610BDE1
:1004B0004343514330B55C18010C130C0D4692B206
:1004C0005D4380B251432C19054655430A0C09047B
:1004D0004D1962415843010C00044019514130BD8F
:1004E000FEB5054610460C46184373D0AE468C4602
:1004F0000020AD1A01469C4167D3664600270124BF
:100500003D46B61A9D4102D313463A46212465461C
:1005100076462F04360C3E432D0CB61A9D4104D36B
:10052000150C1B042B4312041034654676462F0627
:10053000360A3E432D0AB61A9D4104D3150E1B02FE
:100540002B4312020834654676462F0736093E4390
:100550002D09B61A9D4104D3150F1B012B4312011F
:10056000241D65467646AF07B6083E43AD08B61A69
:100570009D4104D3950F9B002B439200A41C65461C
:100580007646EF0776083E436D08B61A9D411AD3AA
:1005900092185B41641C16E0001876466546494196
:1005A000B71A9D410191009009D36046B11A984154
:1005B0008E468446009801990025401C6941DD075C
:1005C00052082A435B08641EE6D57246634603B0B0
:1005D000F0BDFFE700200146C046C0462A4623463C
:1005E000F5E710B50B460146184600F097FF10BD21
:1005F0000FB4054910B503AA029800F08FFF10BC94
:1006000008BC04B0184700006C33003070B50446D5
:1006100085690068C10601D5302600E02026C007A4
:1006200007D070BD62683046A1689047206A401CC0
:1006300020626D1EF6D570BD70B5044685690078E0
:10064000C00707D170BD6268A16820209047206A6A
:10065000401C20626D1EF6D570BD70B50C46054677
:10066000012A05D02878800600D5EA69002302E037
:10067000012305E05B1C934202D2E05C0028F9D123
:10068000A869E618C01AA861286AC0182862284616
:10069000FFF7BCFF04E06A682078A968641C9047F3
:1006A000B442F8D32846FFF7C7FF70BDF7B5002561
:1006B00075291068009914A611D000F077FC002865
:1006C00002DA404211A608E0009909688A0701D5BC
:1006D0000FA602E0490704D50EA6012501E000F0AF
:1006E0006EFC009F0024243704E001F0C8FA30318A
:1006F0003955641C0028F8D12B4632462146009813
:1007000000F066FCFEBD0000000000002D000000AF
:100710002B00000020000000F7B5D21D0025D208F4
:1007200015A6D200F52905CA11D0002A05DA002144
:100730004042914111A60A4608E0009909688B07DA
:1007400001D50FA602E0490701D50EA601251146E5
:10075000009F0024243704E000F0EBFB30323A55D0
:10076000641C02460A43F7D12B46324621460098C4
:1007700000F02EFCFEBD0000000000002D00000077
:100780002B00000020000000F8B50F460188090585
:1007900002D5224C7C4402E0204C7C440E340546B9
:1007A0000021243508E016071209360FA65D6E54A5
:1007B0001E0732431B09491C16461E43F3D122462D
:1007C00004780023240705D5702F06D0002901D016
:1007D0000223113200F0FCFBF8BD01231032F9E7CF
:1007E00070B504460D462146106800F0E8FB002372
:1007F000024629462046FFF7C7FF70BDD21DD30829
:10080000DB000CCBC0E730B403682024126823431C
:1008100003600823C36130BC0023B5E7D47A00002D
:10082000F3B50446002081B020622046E168884785
:10083000002872D0252802D06268A168ABE0594F29
:1008400000267F442046E16888472028054608DBCB
:10085000312D06D2781920380078002801D00643BF
:10086000F0E7B00701D5042086430020E061074689
:10087000A0612A2D0AD0284607F0A6FC002827D020
:10088000B8000019303D0090856119E00298BA0067
:10089000121902C8916102902046E1688847012F31
:1008A000054617D1E06900281FDA202086431CE0A6
:1008B00000980A21806948430099401930388861BE
:1008C0002046E1688847054607F07EFC0028EFD106
:1008D000012F0AD02E2D08D12046E1688847054611
:1008E000202006437F1C022FC3DBA069002803DA07
:1008F0004042A06101200643F00701D0102086434A
:100900006C2D0BD0682D09D04C2D3CD06A2D38D0E1
:10091000742D38D07A2D36D016E040E0E1682F46AD
:1009200020468847B842054609D16C2F29D00120BE
:100930008002E168064320468847054604E06C2FA4
:100940001DD0FF2001300643002D28D02846413815
:10095000192803D80120C00206432035204626600E
:100960002946029A1646FFF767FC002810D0012896
:100970000BD0F61DF008C0000830029055E740206B
:10098000E1E78020D5E70020D3E7361D02964CE74B
:1009900062682846A1689047206A401C44E7206AA4
:1009A000FEBD00004E7A0000F8B5044616460D461E
:1009B0004769007B800730D0384604F0D8FF002814
:1009C0002BD132461026002A25D0012A02D0022A35
:1009D00023D104E0204600F047FF45191BE03846CC
:1009E00004F0B3FFE16831430028E16004DA2046F7
:1009F00000F082FF0120F8BDC9030BD56268E16AEF
:100A0000914200D81146A26989182269891A814247
:100A100000DD08462D18002D01DA0220F8BDE16A3C
:100A20006068E268814206D29103E06203D5012149
:100A300049048A433243A669AE4211DCE16A81422D
:100A400001D90B4600E003469F192369FF1AAF4204
:100A500006DD814201D90F4600E007469F4206D1DC
:100A6000202002430020A060A56220600DE0AD1BA5
:100A7000E669AE1B8142A66000D90846C01A281A52
:100A80002060581960602020824303480240002003
:100A9000E26040342072F8BDBFCFD7FF10B50249E5
:100AA00007F099FB10BD00006C33003010B5044610
:100AB00003E007F090FB401C08D020780549641C37
:100AC0000028F6D10A2007F086FB10BD0020C043A5
:100AD00010BD00006C330030F7B516460C461046CA
:100AE00000F06EF82078611C61280AD0722802D0CC
:100AF000772839D102E00125002404E002250424EE
:100B000001E02D4D08240222032301270878491C07
:100B10002B2806D0622807D02039C87F742807D038
:100B200008E01D431443F1E7042005433C43EDE78F
:100B3000102004430098214604F01CFF411C13D0F0
:100B40000021316171600121F5604902F16170613C
:100B5000200704D5304602220021FFF725FF306D23
:100B6000384330653046FEBD0020FEBDF8B50D4669
:100B70000646124C206DC10704D0410804D0440839
:100B80006400F7E7224610E05420FFF719FC070045
:100B900010D07908206D49000122114308435421E7
:100BA0002065384600F011F93A4629463046FFF7ED
:100BB00093FFF8BD0020F8BD02800000183300301C
:100BC000FEB50446466900690F4F0190E5680020B4
:100BD0000090A80707D0204600F0BEFE304604F083
:100BE000B1FE002801DA3846FEBD280502D501987D
:100BF000FFF717FC4C21204600F0E7F8206D400875
:100C0000400020650098FEBDFFFFFFFF30B50346A2
:100C10001D78002D08D00A461478521C002C03D0F1
:100C2000AC42F9D15B1CF3E7181A30BD034610B58E
:100C30000B439B070FD1042A0DD308C810C9121FFC
:100C4000A342F8D018BA21BA884201D9012010BDB8
:100C50000020C04310BD002A03D0D30703D0521C8C
:100C600007E0002010BD03780C78401C491C1B1BBA
:100C700007D103780C78401C491C1B1B01D1921E24
:100C8000F1D1184610BD000030B5441C03E00178D6
:100C9000401C00290DD08107F9D10B4BDD0104C8A0
:100CA000D11A91432940FAD0001B0A0603D0C01E76
:100CB00030BD001B30BD0A0401D0801E30BD0902CA
:100CC000FCD0401E30BD000001010101F8B5042A2E
:100CD0002CD3830712D00B78491C0370401C521E82
:100CE00083070BD00B78491C0370401C521E8307EE
:100CF00004D00B78491C0370401C521E8B079B0FBD
:100D000005D0C91ADF002023DE1B08C90AE0FFF75F
:100D10002BFBF8BD1D4608C9FD401C46B4402C43C2
:100D200010C0121F042AF5D2F308C91A521EF0D4BB
:100D30000B78491C0370401C521EEAD40B78491CE6
:100D40000370401C012AE4D409780170F8BD1346F1
:100D500010B50446CAB2194610028218100482184F
:100D6000204600F021F8204610BDD2B210B5130283
:100D70009A1813049A1800F017F810BDD2B210B5E3
:100D800013029A1813049A1800F001F810BD01E03C
:100D900004C0091F0429FBD28B0701D50280801CE7
:100DA000C90700D00270704700290BD0C30702D0DA
:100DB0000270401C491E022904D3830702D5028019
:100DC000801C891EE3E70022EEE70022DFE7000037
:100DD000024670B50A4392072AD11E4DEE0104C89F
:100DE00008C9541B9443344017D0D0B2D9B2401A2A
:100DF0002106014310D190B299B2401A2104014357
:100E00000AD110021902000A090A401A21020143FC
:100E100002D1100E190E401A70BD9A42DFD010BADE
:100E200019BA884201D9012070BD0020C04370BDAD
:100E300002780B78401C491C002A09D09A4207D13D
:100E400002780B78401C491C002A01D09A42EFD04E
:100E5000D01A70BD01010101704770477047000052
:100E600070B5064C7C44064D7D4403E020680019B3
:100E70008047241DAC42F9D170BD0000408C0000B9
:100E8000408C000070470000004870471434003068
:100E900000487047183400307047704770477047FB
:100EA00038B504460A4600206946C046C0460028B8
:100EB00005D002462046009900F0F5FE012038BD1D
:100EC00010B5012001F025FC10BDF8B5C046C046A4
:100ED000054600200C461020C0460646A819A04230
:100EE0000DD9324669460020C046C046070001D1F0
:100EF00001F00FFC0098A04200D00546C419FFF78E
:100F0000C3FFF61D07460560F008C00046192846D5
:100F100000F008F8B44204D031463868A21B00F053
:100F2000C2FEF8BD00210160416080607047102062
:100F300070470B4670B5024689078008084319467A
:100F40009D08141AA94125090807054308092C1909
:100F50004841250A01060D43010A2C194141200C84
:100F60000D0428430D0C00194D41002140194D413D
:100F7000C00869070843E908840F8D0025438400F1
:100F800024184D4124196D41121BAB4107E009257E
:100F9000ED432C11521963410024401C61411C4651
:100FA0000A250026551BB441F1D270BD09684A05D7
:100FB00001D540B27047C905FCD500B27047096839
:100FC0004A0501D5C0B27047C905FCD580B270474B
:100FD000FFB504460D4681B0243000902168880694
:100FE00004D51022E0699143216000E00120A8426D
:100FF00001DD471B00E000270498A1697A19101849
:10100000081AA0612078C00602D42046FFF7FEFA35
:10101000002608E003986268A168805D9047206A16
:10102000401C761C206204988642F3DB2078C006C0
:101030000AD52046FFF7EAFA06E06268A168302088
:101040009047206A401C206238467F1E0028F4DC4E
:1010500007E000986268A168405D9047206A401CE4
:10106000206228466D1E0028F3DC2046FFF7E4FAD4
:101070002078000602D5022005B0F0BD0120FBE774
:1010800011680268006A530501D5087009E0D305AC
:1010900001D5088005E0130602D5C21705C100E09E
:1010A0000860012070470000FFB50C461E468FB057
:1010B00003CA089009914F007D0D00D16D1E0021DB
:1010C00008460020C0460321099A89050840002AE5
:1010D00003DA8200801840080840800D01280A9039
:1010E00002DD0020C0430A90089807430DD0F04865
:1010F000F049281848430714189800281DD0754255
:10110000291E1DDD0A9842421BE01898012802D0D2
:101110000020302104E00020F24305E02154401C6F
:10112000B042FBDB30460022189B002121540F996E
:101130008B600A60486013B0F0BDBD1B6D1CDFE71B
:101140000A9A002900DA69420BA800F08FFF0BAB66
:1011500007CB03AB07C30899099800F0F3FF6B4670
:1011600007C30146D4480918002D00910BDDD24970
:1011700003980A9A49424018002303A9039068463D
:1011800001F050FA08E003990A9A0023081803A90D
:101190000390684601F0F0F96B4607C30004000CA9
:1011A00003D00020C043410800E01046189A002AEE
:1011B00003D00022009215461EE0751E05D4FFF7ED
:1011C000B8FE303262556D1EF9D5012208430796EC
:1011D00002D000227F1C04E02078302801D10022B8
:1011E0007F1E002A069787D01EE0112D07DAFFF731
:1011F000A0FE303262556D1C02460A43F5D1084309
:1012000003D00098002819D00EE00021681E05E0E8
:10121000235C625C63542254401E491C8142F7DB0C
:10122000A81B401E07950690079A18990020A05405
:101230000F98079B069A81600CC07CE7112600205E
:10124000189059E7D21DF0B50D460446D10893B069
:10125000C90003C90C900D9106F0A0FF02460D983D
:10126000C00F01D02D2007E02068810701D52B2079
:1012700002E04007C00F4001032A0F9001D0072A67
:1012800005DB03462946204600F094FE0EE1207857
:10129000800601D5E76900E006272846652D04D0C1
:1012A000662814D0672D69D12DE00020112F009001
:1012B00001DB112300E07B1C0CAA03A910A8FFF797
:1012C000F3FE1199002610987D1C0E9142E001203A
:1012D0003B460CAAC0070B900120009003A910A860
:1012E000FFF7E2FE119D12981099002600280E9536
:1012F00001D1781C0D18781B02D446427D1C761E45
:10130000E81B00903AE0012F00DA01270020112F9E
:10131000009001DD112300E03B460CAA03A910A8B0
:10132000FFF7C2FE11993D46109800260E912178D4
:1013300009070BD40E99A94200DA0D4603A9012D25
:1013400004DD4A19203AD27F302A06D0B84201DAA9
:10135000011D04DA012100910FE06D1EEFE7002866
:1013600002DC86192D1A03E0411CA94200DD0D465E
:10137000801B401C00900120C0070B9020780007C4
:1013800005D40098A84202DB0020C04300906946C3
:101390000020C8720B98012102AF0337C9078842A9
:1013A00025D0022010902B2011900B9800280BDAEA
:1013B00040420B902D20119006E00B9800F05FFC4E
:1013C00030317F1E0B9039701099481E0029109003
:1013D000F3DC0B980028F0D111987F1E387020881C
:1013E000000501D5452000E065207F1E387001A86A
:1013F000C01BC01D0B900F98002800D00120411980
:101400000098C01709180B980818A169081A401EFF
:10141000A0612078C00602D42046FFF7F7F80F98A5
:10142000002805D06268A1689047206A401C2062AD
:101430002078C00625D52046FFF7E8F821E0002EE9
:1014400007DB0E98B04204DD03A86268805DA168E6
:1014500002E06268A16830209047206A761C401C38
:1014600020620098401E002800900AD1FFF710FD6E
:10147000C06862680168405CA1689047206A401CAF
:10148000206228466D1E0028D9DC07E062683878A3
:10149000A1687F1C9047206A401C20620B99481E5F
:1014A00000290B90F2DC2046FFF7C6F8032042E645
:1014B00001FCFFFF104D0000E1DFFFFF01694A1C46
:1014C00002610878704700B58FB002910021059144
:1014D0000549019379440391114604906846FFF74A
:1014E0009FF90FB000BD0000E5FFFFFF10B5436995
:1014F000002B02D0C046C04601E0FFF7AEF8012045
:1015000010BD1278014624310A7000224A7001226F
:10151000ECE711680022D243E8E70000084B70B501
:101520000D467B44FFF7CFFF0446284600F0A0F8A5
:10153000002802D00020C04370BD204670BD0000CE
:10154000B16C0000F7B50446154686B02B487844C8
:10155000002703C83E460090019111E007986A46B3
:101560007100415A02A801F0ADF8411C07D0217862
:10157000890603D5E269391891420ED83F18761CC6
:101580002078800602D5E069B84206DDAE42E5DB90
:1015900007987100405A0028E0D1A069C01BA061E3
:1015A0002046FFF733F8154878445A3803C80090AE
:1015B0000020019116E041006A460798415A02A8AE
:1015C00001F080F80590401C0AD0002505E0626813
:1015D00002A8A168405D90476D1C05988542F6D32E
:1015E0000498401CB0420490E5DB206AC0192062D8
:1015F0002046FFF721F809B0F0BD0000566D00004D
:1016000070B504460021243408E05507D2086D0F58
:10161000303565545D072A43DB08491C15461D43D8
:10162000F3D10468002310A2250708D520252C40FB
:101630000C4304D0C46901230CA2641EC461FFF7EB
:10164000C7FC70BD10B5044621461068FFF7B7FC13
:10165000002302462046FFF7D3FF10BDD21DD1085C
:10166000C9000CC9CCE700000000000030000000F9
:10167000C068802108407047F8B505460C46C86828
:101680000521C9048843012189050843E0608006DB
:1016900002D5204600F086F97149E0680140022930
:1016A00003D0204600F028F9BCE0052101224903BF
:1016B0000140D20391420FD1C00306D56168E06AB0
:1016C000884200D80846606006E02069E0626060F9
:1016D000606904F03AF9A061A1680022EEB2002925
:1016E0000EDAE06883050BD4C943A16009212260AA
:1016F00049030843E0606068411C61600670ACE02B
:10170000E068012149030843E0600020206020696F
:10171000002831D1606904F02AF9012527462437D1
:10172000ED02002816D0A0898005800F08D0E0695E
:10173000FEF746FE0028206102D0E068284318E04A
:1017400001202761E061E06803210902884301214B
:1017500089020DE0E069FEF733FE00282061EFD03A
:10176000E0682843E0608105890F03D1FF21013142
:101770000843E06020696060E2683A4F2569D0055F
:101780001FD56168E06A884200D80846411B05D031
:101790002246284600F0BAF8002843D1E06801024A
:1017A00004D5E56200206560A06053E0691CE16239
:1017B0006160E169491E3843A160E06030462E70E7
:1017C000F8BD100201D53A4009E06068411C616033
:1017D0000670E06838430A2EE06006D00022E16A15
:1017E0006068814203D90B4602E00122F7E7034615
:1017F000A7895B1B7F0504D4E7699F4201DD002AAE
:101800001ED0814200D801460F1A0020E5626560B3
:10181000002BA06009DD22461946284600F076F824
:10182000002802D00020C043F8BD002F08D0A069D6
:10183000E5626560C01BA061E06810210843E060BC
:10184000E068000209D56168A069E562491B40189B
:101850006560A0610120C043F8BD3046F8BD0000BE
:10186000821000000000010010B50146C268900718
:1018700003D0900607D5886A0AE0FEF79DFD012196
:101880000160881E10BD8B694868C0180B69C01ABA
:1018900040310B7A002B02D0497A401A10BD110357
:1018A000FCD50028FADD401E10BD000070B5C468EC
:1018B000A50713D0650211D4D51FF93D0AD0FF3D0D
:1018C0006D1E07D0FF3DFF3D022D07D1014624319B
:1018D000012305E0074E5D1EB54201D3012070BD16
:1018E0000161C36141600F2109028C431443C4604C
:1018F000002070BDFFFFFF00C168802211439203EA
:101900009143C1600021816001607047F7B51446C2
:101910000E463348D5685769054209D03846A16953
:1019200004F074F8002811DB2D48C0430540E56041
:101930002B4632463846009904F06BF84200A16904
:101940005208B21A89180028A16104D02046FFF776
:10195000D3FF0020C043FEBD70B504460569C06AD0
:101960006168884200D80846E1680522D2049143A4
:10197000E160C90314D5A84209D02246411B28467C
:10198000FFF7C4FF002802D00020C04370BDE5620D
:1019900000206560A060E068012109048843E060E0
:1019A000002070BD10B50446C06820218843E06067
:1019B000A16AA06988420ED02046FFF7CDFFE068FB
:1019C00003210903884310210843E060A06AA06155
:1019D0002069E06260600349E0680840E06010BD93
:1019E00010000200BFBFFFFF10B543485421FFF7AE
:1019F000ECF942485421FFF7E8F941485421FFF738
:101A0000E4F940483C493D4B404A01603E48036090
:101A10003B4810605A1C0A65411C1965012101658B
:101A20003C48354A3AA17844FFF756F8002804D1DB
:101A3000384878440C3800F066FE38482F4A36A102
:101A40007844FFF749F8002804D1344878440C382A
:101A500000F059FE32482A4A2FA17844FFF73CF89B
:101A6000002804D12E4878440C3800F04CFE402366
:101A70002148DC0000212246FFF718FF002804D08F
:101A8000244878445C3800F03EFE1C48224640233F
:101A90000021FFF70BFF002804D0204878445C3871
:101AA00000F031FE1648224610230021FFF7FEFE0B
:101AB000002804D01A4878445C3800F024FE10BD99
:101AC0000F4870B5006D44080B486400FFF778F8C4
:101AD0000A48FFF775F80A48FFF772F809E0206D29
:101AE000450820466D00FFF76BF82046FEF799FC8D
:101AF0002C46002CF3D170BD183300306C3300300D
:101B0000C0330030E0310030E4310030E8310030E3
:101B1000720000004E750000770000003B75000069
:101B200012750000002203098B422CD3030A8B425A
:101B300011D300239C464EE003460B433CD40022C5
:101B400043088B4231D303098B421CD3030A8B42D7
:101B500001D394463FE0C3098B4201D3CB01C01AA5
:101B6000524183098B4201D38B01C01A5241430970
:101B70008B4201D34B01C01A524103098B4201D35E
:101B80000B01C01A5241C3088B4201D3CB00C01ACB
:101B9000524183088B4201D38B00C01A5241430843
:101BA0008B4201D34B00C01A5241411A00D2014668
:101BB0005241104670475DE0CA0F00D04942031001
:101BC00000D3404253409C46002203098B422DD350
:101BD000030A8B4212D38901FC2212BA030A8B42F8
:101BE0000CD3890192118B4208D3890192118B4247
:101BF00004D389013AD0921100E08909C3098B42CC
:101C000001D3CB01C01A524183098B4201D38B010E
:101C1000C01A524143098B4201D34B01C01A5241B1
:101C200003098B4201D30B01C01A5241C3088B42F6
:101C300001D3CB00C01A524183088B4201D38B00E1
:101C4000C01A5241D9D243088B4201D34B00C01A6B
:101C50005241411A00D201465241104663465B1080
:101C600001D34042002B00D54942704763465B10C8
:101C700000D3404201B50020C046C04602BD014627
:101C80008008081A02091018020A1018020C10180D
:101C9000C008820012185200891A01E0401C0A395B
:101CA0000A29FBD2704710B50346406801E003469D
:101CB0004068002801D08842F9D31868C3188B42C5
:101CC00006D0CB1CD808C000001D411A521A01468C
:101CD000081D0A60FEF7A5FB10BD0000D21DF0B57F
:101CE00004460D46D0088DB0C000466807683146EE
:101CF000384606F053FA0246F00F01D02D2307E0D4
:101D00002068810701D52B2302E04007C00F430163
:101D10006846002B037001D0012000E00020032A58
:101D20000A9001D0072A04DB2946204600F042F938
:101D30002DE12078800601D40D2500E0E5697000D2
:101D4000400D0D2D01904BDA300D00210B9008460F
:101D50000020C046032189050840002E05DA8200D4
:101D60008018C20F1018401008408015012801DDAE
:101D70000020C043A9000023182906D39C460A4628
:101D80000123183A1B07D34003E001221205CA4081
:101D900094460C31202902D33A46203900E03246DD
:101DA0008A40002802DD002A06D119E0002817D158
:101DB0000121C9078A4213D3194663467F185E4141
:101DC000002806D10120C007824202D1084687437D
:101DD0009E430B98310D814202D00198401C019026
:101DE0002088000502D57149794402E06F497944A1
:101DF00019396B460A9830221A540A980A7C401CFA
:101E00001A54401C0A900198002801DC302000E0A0
:101E100031201872019A0120002A02D0644BD21896
:101E200004E072003A4302D0614A521C0192002D34
:101E300002DC2278120703D56A462E205072022057
:101E40000022864694460CE032033601120F6D1EC6
:101E50008B5C02AA13546246521C401C9446052A0D
:101E600001DA002DF0DC002202AE08E03B0F3F015A
:101E7000CB5C521C6D1E3354401C082A01DA002D25
:101E8000F4DC23689A0601D511E0401E704504DD9C
:101E90003218203AD27F302AF7D0002807DD3218D6
:101EA000203AD27F2E2A02D11A0700D4401E002DDC
:101EB00003DD3E223254401C6D1E497C3154019991
:101EC000401C002906DA2D21471C3154019840425C
:101ED000019003E02B21471C315401987D21C9005A
:101EE000884206DBFFF728FE3030F0557F1C019159
:101EF00001E0642808DB01986421FFF71DFE303003
:101F0000F0557F1C019101E00A2806DB01980A21A7
:101F1000FFF712FE3030F0557F1C01980A21FFF7C1
:101F20000BFE3031F1550A98A1697F1C7A191018FF
:101F3000081AA0612078C00602D42046FEF766FB8E
:101F4000216A6E460A980818206204E062683078B8
:101F5000A168761C90470A98401E0A90401CF5D153
:101F60002078C00602D52046FEF750FB02AE09E0FD
:101F70003078761C3E280DD06268A1689047206AB0
:101F8000401C20627F1EF3D22046FEF755FB0DB0A9
:101F90000320F0BD206A4019206203E06268A16856
:101FA000302090476D1EEDD3F8E70000D7640000A5
:101FB00001FCFFFFF8B51F46044601230068DB0261
:101FC000032601461840072A05DB002801D017A583
:101FD00006E017A504E0002801D016A500E016A52C
:101FE000102081432160A069C01E002FA06101D094
:101FF000401EA0612046FEF709FB002F09D038469D
:102000006268A1689047206A401C2062C01C206260
:1020100006E0206AFAE762682878A1686D1C90479C
:10202000761EF8D22046FEF707FBF8BD4E414E0063
:102030006E616E00494E4600696E660010B54369D8
:10204000002B02D0C046C04601E0FFF77BFA01201A
:1020500010BD12880146243182840022C2840122EC
:10206000ECE711680022D243E8E70000F7B5164616
:102070008AB0334878446C4603467C33C06F5A6854
:102080009B680DC42E487844763003AC0DC80DC44F
:102090003720C001081837211B30FFF74DFD0546DA
:1020A0000C46803D1B3C02D56442012000E000202C
:1020B0000027099010E0E0070CD00C20204978435D
:1020C000794432464C3941186846012300F054FAED
:1020D0006B4607C364107F1C002CECD1184F7F4463
:1020E0002E3F16E0E80712D02001C0190EC8069155
:1020F000089307920068F04201D19819089032467F
:10210000012306A903A800F037FA03AB07C36D103B
:10211000641C002DE6D10998002806D03246694695
:10212000012303A800F07EFA05E001233246694648
:1021300003A800F021FA0A9B07C30DB0F0BD000010
:1021400060620000034640000A4610B5400D0BD007
:102150000121C9070F24A40200191C0364082143AC
:10216000540D2143D20207E000210120F2E7D40FF1
:10217000490021435200401E0029F8DADB0FDB073B
:10218000184310BDFFB50D46144685B04868516828
:1021900005F0EAFF00910190A868A16805F0E4FF4E
:1021A00002910390A868616805F0DEFF029A121898
:1021B0008242029201D2012000E00020019A0B1815
:1021C000D2180028019202D08A4202D903E08A4242
:1021D00001D2012000E000200099081800906868F2
:1021E000A16805F0C1FF029A12188242029201D240
:1021F000012000E00020019A0B18D218002801925B
:1022000002D08A4202D903E08A4201D2012000E0D2
:1022100000200099081800902868216840004900B3
:10222000400849084018FA49471814E0019940004D
:10223000C90F08430090019802994000C90F084354
:102240000190029803994000C90F08430290039837
:1022500040007F1E039000980028E7DA08980028C5
:1022600001D0EC4E00E00026B74201DA012000E088
:102270000020002804902AD0F71BF806C00E15D0C5
:10228000029B2021091A039A8B401A430392029A57
:10229000019BC2408B401A430292019A009BC240AC
:1022A0008B4000991A430192C14000917B110DD0DF
:1022B0006F460320C11A03D500218200B95003E004
:1022C0008A008100BA587A50401EF3D537460398E9
:1022D0000299002800D001200143089802910028AB
:1022E00008460CD0002800D001200199019A490528
:1022F00008430121D20AC902D202019200E0012161
:102300000E9B0122D207012B02D0002B03D013E039
:10231000002807D120E0904204D890420CD1019BC4
:102320000B4209D0019B5918019105D10099491C14
:10233000009101D17F1C009200280DD01021084689
:102340000020C0460498002806D00F98002803D02B
:10235000082108460020C04628682168019B009A91
:102360004840C10F0598C90739430EC009B0F0BDF8
:10237000FFB587B0099A0898089953689268406831
:10238000896896460022039317469446089A126875
:102390005300099A5B081268520052089A1A9E4B21
:1023A000D4180A9A002A01D0352200E04022069271
:1023B0000022012315460492DB07059324E0002D3B
:1023C00005D175460346039E4D1BB34109D375469F
:1023D0006646039B491B049D9841059B7519AC46B5
:1023E0005F4163463B4308D0059B049EDD077608AA
:1023F0002E435B080496059301E0521E641EC50F30
:10240000ED0749184041521C069B9A42D7DB002D2C
:1024100004D17546039A6B1A824101D203200CE065
:10242000039A0B466B404240134303D0014303D051
:10243000012002E0022000E000206146019100211D
:10244000009702910A99002905D061464002014394
:10245000704B019102E08007002302909C4201DA58
:10246000012000E0002007003AD01A1BD006C00E61
:1024700015D0029D2021019C091AC5408C4025439E
:10248000029C8C4000D001242543019C0295009DB4
:10249000C4408D4000992C430194C14000915411D7
:1024A0001DD06D460221002202290CD10320001B01
:1024B00007E0002804DB8600AE59002E00D0012280
:1024C000401C0328F5DB081B02D588002A5004E0D5
:1024D0008000285810438A00A850491EE3D51C46A6
:1024E0000A98002802980CD0002800D001200199F9
:1024F000019A490508430121D20AC902D202019278
:1025000000E00121109B0122D207012B02D0002BF9
:1025100003D013E0002807D11FE0904204D8904276
:102520000CD1019B0B4209D0019B5918019105D197
:102530000099491C009101D1641C009200280CD024
:10254000102108460020C046002F06D01198002810
:1025500003D0082108460020C04608980999019A2E
:10256000009B006809684840C10F0798C9072143CC
:1025700082600AC00BB0F0BD00B585B00193009237
:102580000A460146002302A8FFF7FCFD02A807C87F
:1025900005B000BDFFB50A461F4685B007990193F7
:1025A00001230091014602A8FFF7ECFD0299039870
:1025B000049ECA0F4900D20700920F2249089202D6
:1025C0008C1A0021002800DB0C46450013486D08DA
:1025D000844214D3079A002A04DA441E0026104DC0
:1025E000F64302E004460D460E4610210846002040
:1025F000C046002F03D0042108460020C046200515
:10260000E90A0843009908436905F20A1143ADE657
:1026100002C0FFFF013C0000FF3F0000FF07000079
:10262000FFFFFF7F00B585B0019300920A46014687
:10263000002302A8FFF79CFE02A807C8A8E7FFB581
:102640000A461F4685B00799019301230091014670
:1026500002A8FFF78DFE02990398049ECA0F490055
:10266000D20700920F22490892028C1A00210028FA
:1026700000DB0C46450011486D08844214D3079ACC
:10268000002A04DA441E00260D4DF64302E00446FB
:102690000D460E46102108460020C046002F03D0EC
:1026A000042108460020C0462005E90A0843009995
:1026B00008436905F20A114358E60000FF070000CD
:1026C000FFFFFF7FF8B516460C460546FDF76CFE8A
:1026D0000368FF200230C05C012807D0FF2C0FD810
:1026E000185D00280CD001202C70F8BDFF33324655
:1026F000214608331868C71828460023B847F8BD94
:102700000020C043F8BD10B500F010F800F007F845
:1027100010BD10B500F024F800F001F810BD10B5A0
:10272000002801D003F010F910BD000010B50146DB
:1027300002A000F03DF8012010BD000053494752AF
:10274000545245443A2052656469726563743A2074
:1027500063616E2774206F70656E3A200000000080
:1027600010B5012805D0002103A000F021F80120B8
:1027700010BD09A1F8E7000053494752544D454D9B
:102780003A204F7574206F662068656170206D6512
:102790006D6F7279000000003A2048656170206D0D
:1027A000656D6F727920636F727275707465640005
:1027B00070B505460C460A2000E06D1C03F042F996
:1027C000002D06D028780028F7D102E0641C03F021
:1027D00039F9002C02D020780028F7D10A2003F024
:1027E00031F970BD70B58C180578401C6B075B0F14
:1027F00001D10378401C2A1106D10278401C03E065
:102800000678401C0E70491C5B1EF9D12B0705D4BD
:102810000023521E0DD40B70491CFAE70378401CAC
:10282000CB1A921C03E01D780D70491C5B1C521ED4
:10283000F9D5A142D8D3002070BD0000054909B9DF
:10284000064800E0044811B90649FDF766BD044991
:10285000FDF763BD40050100C07A0030B87A003052
:10286000008001300020003080B503F095FF80BC6F
:1028700001BC864603F0A8BD03F090BFB0B5044686
:1028800060B1204600F040F90546204600F090F87F
:10289000284381B2042001B90846B0BD0220B0BD72
:1028A00020B11149096809B1096A08470220704737
:1028B00021B10D4A12680AB1526A104702207047CE
:1028C0000949096809B10968084702207047C046EC
:1028D00022B1054B1B680BB19B691847022070475A
:1028E0000149086000207047CC790030B0B54368DA
:1028F0004C680122A34210D100225BB18968806834
:10290000002204780D7865402A435B1E491C401C58
:10291000002BF6D150421043C20F1046B0BD00004C
:10292000F0B503AF83B06E4600220224754BC1B3ED
:1029300031600023DA4302240028736008D14A483A
:1029400000684A49B1FBF0F14A1C424300231C468F
:1029500047480068C11D0725A9436D46B5606D460F
:102960006D1AAD4682B069460860284603F08AF8C1
:1029700002B00028B068726810D12846316803F0B0
:1029800095F90446020C5F48044206D13A480168B2
:1029900019B10720154688472A46B0688546594927
:1029A0000B461C4010042043FC1F053CA546F0BD0F
:1029B000F0B581B005460224C8B103F05DF80646C3
:1029C00003F052F82B4F386003F046F826490860B0
:1029D000386840F22711B1FBF0F1491C414324480B
:1029E000016026B92448056000242046A8472046F7
:1029F00001B0F0BDF0B583B00346022482B3906805
:102A000070B30026F54302243BB9174B1B68174CE3
:102A1000B4FBF3F4651C5D4300245768144B1B683A
:102A20006FB1144E0291194633687E1EB6FBF3F661
:102A3000761C5E430B4602991268964210D86A468D
:102A400016606918CA1800252B4603F01BF838B920
:102A50000948016800292C4602D004208847002438
:102A6000204603B0F0BDC046DC790030FFFFFF0315
:102A7000D4790030D8790030D0790030F0B5A1B0E9
:102A80000446002602201CB300261F961E961EA890
:102A90001A4D0822294603F001F9C0B91EAF384685
:102AA00003F08CF901900420384303F087F90228E1
:102AB0000DD102A87021FEF788F9114801998142D1
:102AC00005D102A87022294603F0E8F828B10420B5
:102AD00081B23004084321B0F0BD02A8214603F0C2
:102AE0003DF9060C07490842F2D10F480168002061
:102AF0000029EDD0062088470020E9E700200210D9
:102B0000D4B3515AFFFF0000B0B5044603F082F879
:102B1000022530B904480460002514B10025284678
:102B2000A0472846B0BDC046FC380030F0B5BFB065
:102B30000E46584C002800D189E08768002F00D14C
:102B400085E0002E00D182E04568402D00D97EE06E
:102B5000002A00D17BE0B068002800D177E09068BF
:102B6000002874D01068202871D301922FA840212A
:102B7000039136220292FEF701F91FA85C22039905
:102B80000392FEF7FBF8FDB13878029948402FA96F
:102B900008703878039948401FA90870012D13D098
:102BA00001222FA810431FA911437A1C6B1E057820
:102BB00017786F400D78077017786F400F70401CC2
:102BC000521C491C5B1EF2D104AF384604F046FA91
:102BD0000021384604F076FA68BB04A82FA94022E9
:102BE00004F0C0FA38BB7268B16804A804F0BAFAFD
:102BF00008BB0198816804A804F09CF9D8B904A81E
:102C0000002104F05FFAB0B904A81FA9402204F023
:102C1000A9FA80B90198816804A82026324604F0F8
:102C2000A1FA40B90198816804A804F083F910B9A9
:102C300001984660002404A804F00BFA2FA8402550
:102C4000294604F06DF91FA8294604F069F92046C9
:102C50003FB0F0BD70B584B0044601680D4D202929
:102C600011D3A06803F084FC68B90B4801A90A4697
:102C700068C868C21020606020462246FFF756FFF1
:102C80000546002025B12168A068FEF79CF828467B
:102C900004B070BD010043556C83011010B50121D3
:102CA0000A0411480368134201D0104B0BE003687B
:102CB0000322134201D00E4B05E0036840F20032BC
:102CC000134205D00B4B1C880C431C80026010BDC6
:102CD0000468032292051442F9D06302064BF2D431
:102CE00002212402EFD4F1E7042003505E360030C5
:102CF000583600305A3600305C360030FEE7F0B50A
:102D000000231C460125A5400D4207D015469D40D5
:102D100003269E400768B7432F4307609B1C641C33
:102D2000102CEFD1F0BD80B500F0B6FEFDF754FADF
:102D3000FEE7000010B514494218445801218B07E2
:102D40001C4207D0114A80580904084217D0DB48BA
:102D5000002116E012681A4214D140F62002815870
:102D600080231943815009494158012424040C400F
:102D7000210CF54C217284589C43845002E0F248A7
:102D800001210172084610BD280800002C0800002F
:102D9000F0B585B00446EC4E7268092101AB00F035
:102DA00075FB3068C11E384D019801292DD8800F60
:102DB000032839D372680721002520462B4600F0EE
:102DC00005FB40F20840324F275032482E4921502F
:102DD000082120462A4600F093FB002852D1072103
:102DE0000022204600F0C6FB40F620016258402039
:102DF0000243625061180A680242FCD1D42038585C
:102E00004108F0603161204D3AE0800F029822D0F5
:102E10003F2109040004084001A9498901434802EF
:102E20004019401C410029E00398C10B07220A40C9
:102E300004219140029A9300144C1C40800F2043BF
:102E4000401C4843110C0F220A409040810A400A5E
:102E5000F060316114E00399CA0B07231340042288
:102E60009A408300094C1C40890F2143491C51435F
:102E7000000C0F2202409140880A490AF16030613B
:102E8000681C706105B0F0BDFF010000FC0F000080
:102E90005034003038080000F0B589B0044640F2E4
:102EA000001540F200112C3100F06AFC40F62002BF
:102EB000A15820200143A150A118A258024207D0D6
:102EC000C54A127A002A00D189E00A680242FCD180
:102ED000002120460A4600F04DFB41F2000001E0CF
:102EE0000898401E089008980028F9D174480126D7
:102EF000067074480290029B40F20012553208217D
:102F0000204600F063FA08900898B8B300212046E4
:102F10000A4600F02FFB089502E00898401E089032
:102F200008980028F9D1029B3721002520462A461F
:102F300000F04CFA08900898022849D10021204658
:102F400040F200150F460A4600F014FB089502E017
:102F50000898401E089008980028F9D15A48012581
:102F60000570029B5A4A2046294600F02FFA022893
:102F700037D1994807609748401C9DE0029B372154
:102F80000022204600F022FA4F480670029B2921B9
:102F90004F4A204600F01AFA40F630002518205813
:102FA000F7050EE0029B37210022204600F00EFAC2
:102FB00045480670029B29212046454A00F006FA42
:102FC00028683842EED0800D304002210A1A4AE0CB
:102FD000089800B3F7480560F548401D6CE0F448D8
:102FE0006AE0019640F63001605866180095ED05DC
:102FF0002842354F09D101213970029B2046344ABD
:1030000000F0E4F930682842F5D0800D00990840BE
:10301000C21C019E27E02C480670029B29212B4AE6
:10302000204600F0D3F940F63000324626182058EA
:103030001546D7050222384201D02E4613E00192F0
:10304000029B37210022204600F0C0F91E4805707F
:10305000029B292120461D4A00F0B8F93068384209
:10306000EED02E46019AD34F3A600221002203ABE4
:10307000204600F00BFA3868C01E01280AD8350433
:103080000321002320462A4600F0A0F9079048B902
:103090007D6010E0032100222046134600F096F9DF
:1030A000079008B1079807E040F63000205800026A
:1030B000084901407960002009B0F0BD2C3400308F
:1030C00048340030FFFF0F008C7900300080FF0093
:1030D0000080FF400000FFFFF0B581B00091044682
:1030E00040F2004002262650201801683142FCD1EF
:1030F0000127076040F600000321215025182868A9
:103100003842FCD1DD481821FDF75FFE2E600F48E4
:103110002158BB070A461A439943009B9B0500D5DB
:103120000A462250215840F200120A43225040F62B
:103130002001625844F200000243625061180A689C
:103140000242FCD101B0F0BD2C3400302808000050
:10315000B0B504461E480021215040F620002158F9
:103160000F221206914321502158092212060A43C8
:1031700022502158FF221204914321502158012549
:103180002A040A432250215848F200029143215058
:103190002046FFF7CFFD48B12046FFF77DFE88B9F6
:1031A000F2480068032803D10D4902E0EE48B0BDA3
:1031B0000A4900F0E5FA2046FFF7EAFD204600F054
:1031C00001FA00B1B0BD074805600020B0BDC0469F
:1031D000040800001001FFFF2C340030A86100003B
:1031E000204E000044340030F0B58BB017460D4639
:1031F000069000200A90F248C61C05935BB1EF4888
:10320000426807210024069E3046234600F0DEF87F
:10321000079018B1079E30460BB0F0BD3B460495B1
:10322000029440F620003518D1483218286840270B
:103230003843286028683842FCD110688024204236
:10324000F4D05D485D493150DC48006801280392A4
:1032500002D0042800D05B02D648335040F2084028
:1032600004993150FF2105980491B0FBF1F00090D2
:103270000890089AAAB3D148027A534B0192029857
:1032800018702E684F48064009960498060409995C
:10329000314309910A99099E19B104210E432E6008
:1032A00004E0474806432E6001210A91197821B9AC
:1032B000197811B9002AF9D136E0C14A961D039B4D
:1032C000196804200142A6D0D61D186808210842BA
:1032D000A1D00898401E089008980028019A3A4BFF
:1032E000CDD10498009941430598401A0890089858
:1032F0000028039B36D0344902980870286843F6AA
:1033000000729043099004980004099A824309923C
:1033100008980004099A024309920A9A09982AB166
:1033200004221043286006E0A54E74E7244A1043A7
:10333000286001200A9008780028A14A05D19F48FA
:10334000007A90B308780028FCD0961D039B18687B
:103350000421084200D15EE7D61D18680821084202
:1033600000D158E70C21002206981E46134600F0B3
:103370002DF83146924A961D002800D04BE7286868
:103380003843286028683842FCD108682042F6D0CB
:10339000072100260698324600F0ECF828683843EA
:1033A000286028683842FCD135E7164633E7C04626
:1033B0001001FFFF2C34003038080000FF0100002E
:1033C00007120000FFC0FFFF8D790030B0B5794CC7
:1033D000025140F620028458274D25400902294316
:1033E00003240C438450811884580222144053B1A2
:1033F00084B1DB43DE4C247A5B1C30D06CB30D68A7
:103400001542F9D106E02CB1D94B1B7A2BB30B68CE
:103410001342FCD11A490A78012A0BD1194A825861
:10342000D2B2552A06D040F6300282580F231340FC
:10343000012B1BD1144A117829B100211170CD4AFA
:103440000223835016E0CB4942585D48801D042377
:1034500000211A4200D00846B0BD59490AE0086868
:1034600044F2000202430A60022103E000200870D7
:10347000534909310846B0BDFCC0FFFF2C34003071
:1034800048340030340800008C79003070B585B0C5
:10349000484C025140F620040259184D15400902CB
:1034A000294311220A4302510219055944491024A3
:1034B000254205D0AE4D2D7AEDB115682542FCD1DF
:1034C000AC4A8258891D0424224214D0002142585B
:1034D0006C466250091D1429F9D16846001D00216F
:1034E000009C0A4685582E0E240234439C50121D1F
:1034F000102A2C46F6D1084605B070BDEEC0FFFF7D
:1035000010B52C4BC25040F62003C258154C144045
:103510000902214307220A43C250C218C45828494D
:1035200002231C4205D0924C247AC4B114681C4278
:10353000FCD1146804231C4205D08D4C247A74B14C
:1035400014681C42FCD18B4C02190459881D1C4282
:1035500006D01268C81D082300211A4200D0084670
:1035600010BDC046F8C0FFFF1001FFFF2C34003033
:103570002C08000010B581B0002300930D4BC25001
:1035800040F62003C2580C4C14400A022243012189
:103590000A43C250C218C058084207D07448007A83
:1035A000074B00B9009314680C42FAD1009801B09F
:1035B00010BDC04624080000FEC0FFFF2C340030C0
:1035C0001001FFFFF0B583B004466948426800234C
:1035D0000293072520462946FFF7F8FE029010B116
:1035E000029803B0F0BD2B4640F620002618614833
:1035F00001942418306840273843306030683842DE
:10360000FCD1206880252842F4D059480068401E2B
:10361000032800D98BE0810001A251188F46C046D3
:1036200000F006B800F03AB800F064B800F067B8EF
:1036300040F20840974C019D2C5097482B504C4825
:103640004268372100232846FFF7C0FE0290002879
:10365000C6D1332100222846FFF752FF02900028EE
:10366000BED120780F2101400F2908D1284600F053
:10367000D1F80290029810B9654900F081F8F0483D
:103680004268372100232846FFF7A0FE0290002859
:10369000A6D1062102220023284626E040F2084057
:1036A0007C49019C2150E8482350E54D6A68372148
:1036B00000232046FFF78AFE0290002890D1332194
:1036C00000222046FFF71CFF0290002888D16A687C
:1036D000372100232046FFF779FE0290002800D012
:1036E0007EE70621022200232046FFF76FFE0290AC
:1036F000C0B175E7306848F20001884330600621A8
:103700001D4A00230198FFF761FE0290002800D0B7
:1037100066E730683843306030683842FCD1206852
:103720002842F6D0306848F2000101433160C74CAE
:10373000621C10210023019D2846FFF747FE0290DE
:10374000002800D04CE7C0482C5007210022284612
:10375000FFF710FF30683843306030683842FCD1E2
:103760000648295801220A432A50002039E7C0465A
:103770002C3400302C0800000001B703280800009A
:10378000B0B50C4601200507FCF70AFE284239D1E6
:103790000F20C0431C4D2858010D0320084001286C
:1037A00005D0022806D0032807D118480BE004F002
:1037B0004BFC04E004F04EFC01E004F051FC40F24C
:1037C000E831B0FBF1F012498C4200D30C46B0FB5B
:1037D000F4F25443001B511C00B9114640F2001290
:1037E000FF2903D8002000290A4603D0FF20000645
:1037F00011060818FF2109062A688A432A602968E9
:1038000001432960B0BDC04620020040E02E000008
:1038100050C30000F0B581B004460026009640F287
:1038200008411C486050884D3F27675106211B4ABC
:103830002046FFF765FE0090611940F20842A21889
:10384000012510B1284601B0F0BD1248034600889A
:1038500040BA0028F6D0988B40BA0028F2D1136005
:103860000F6006210E4A20461F46FFF749FE0090D2
:103870000028E7D13B4640F6200162584020024331
:10388000625061180A680242FCD1188840BA351AA1
:103890004541D7E7503400303808000001FFFF00F1
:1038A00001FFFF80F0B589B01C460F46002108914A
:1038B0006249C91C002B00D1BDE0039260494A68EF
:1038C0000721002605463346FFF780FD059008B125
:1038D0000599B0E03B460496029440F620002F186C
:1038E00058482C182A4638684025284338603868DC
:1038F0002842FCD1206880263042F4D052485349F7
:1039000011504F480068012801D0042801D10399C3
:1039100001E0039949024E48115040F208400192DB
:103920001350FF210298B0FBF1F000900690069A28
:103930005AB34348007A0390484A049810703B6891
:103940004448034007930B040798184307900898CE
:10395000079B18B1082003433B6004E03E48034343
:103960003B6001200890107828B90398002861D0A6
:1039700010780028FCD02068022318421FD1069836
:10398000401E069006980028D7D10098414302981F
:10399000401A069006980028019825D02F49049ACD
:1039A0000A7006983A682B4B1A4003041343079396
:1039B000089A079B2AB1082213433B6006E0236064
:1039C00035E0254A13433B60012208920A78002A19
:1039D000019805D11A4A127A62B30A78002AFCD0FB
:1039E00021680222114221D1022121600C210022F2
:1039F0001346FFF7EBFC019B1049891DD8B93868C5
:103A00002843386038682842FCD120683042F6D01C
:103A10000721002218461446FFF7ACFD38682843FA
:103A2000386038682842FCD1214604E0226003490E
:103A3000083100E00149084609B0F0BD1001FFFF60
:103A40002C3400302C08000038080000FF01000072
:103A50002408000080C000FF0B1900008D790030A1
:103A600080B504F0F1FA0749086004F0FFFA06494E
:103A70000860064940180649B0FBF1F005490860A6
:103A800080BDC0461C3200302032003020A107002B
:103A900040420F001832003001480249016070476F
:103AA00008ED00E00000011010B5044600201B499D
:103AB0008C4209DC1D498C4213D01D498C4212D026
:103AC0001C498C420BD021E015498C4205D0154988
:103AD0008C4204D014498C4218D1174804E017488E
:103AE00002E00D4800E0164804F0C6FA02280AD1A8
:103AF00040F2001004430E48844208D110BC01BCBF
:103B0000864604F0BFBA80000EA1085810BD10BC54
:103B100001BC864604F0BCBA0200805EFF1005407E
:103B2000001105400010055000110550000005402F
:103B300000010540001005400500405F0400005FE3
:103B40000300C05E001BB700008000000000000002
:103B5000000000000000000010270000000000002E
:103B6000001BB700F0B585B0009104466C4801A970
:103B70006CC86CC16B4F6C4884420ADC724884424A
:103B800015DC754884422AD07448844222D0744897
:103B900009E06648844212DC684884421FD06848C5
:103BA000844217D06748844221D1714F17E067489B
:103BB000844211D06648844210D0664806E05C48D2
:103BC000844209D05B48844208D05B4884420ED1CD
:103BD000644F04E0674F02E0644F00E0624F3846F4
:103BE00004F04AFA0646384604F058FA471C00200A
:103BF00020630325E560A06810490140A160012E03
:103C000002D104F021FA0290009BABB1B00001A9EF
:103C10000858B0FBF7F158080818B0FBF3F0801E05
:103C2000020C06D0D8000818B0FBF3F00009801E83
:103C300001E029070843606205B0F0BD0FFFF0FF07
:103C4000F0B587B01C46029201910546344803A99D
:103C5000CCC8CCC1334E344885420ADC3A48854250
:103C600015DC3D4885422AD03C48854222D03C485C
:103C700009E02E48854212DC304885421FD030488A
:103C8000854217D02F48854223D1394E17E02F485F
:103C9000854211D02E48854210D02E4806E0244897
:103CA000854209D02348854208D02348854210D157
:103CB0002C4E04E02F4E02E02C4E00E02A4E3046FF
:103CC00004F0DAF90746304604F0E8F90646012F19
:103CD00003D104F0B9F9049001270C98019BC3B1FA
:103CE000B90003AA5158721CB1FBF2F259085118DD
:103CF000B1FBF3F1891E1E460B0C06D0F1005118E2
:103D0000B1FBF6F10909891E02E0032212071143F3
:103D1000696202990C430443EC6007B0F0BDC046F1
:103D2000888F0110103D8057FFFF0650FF2F07506E
:103D30000030075000400750005007500000075067
:103D40000010075000200750FF2F074000300740A9
:103D500000400740005007400000074000100740A7
:103D600000200740953DEC77143DCC77933CAC7731
:103D7000123C8C77913DA05780B501F0B1F9014913
:103D8000086080BDEC38003080B501F043FF0021B1
:103D9000091A484180BD01F031BF0000F0B581B083
:103DA00004461E4F3E46304601F030FF8619384625
:103DB00070308642F7D3BF4DAE4208D21848311852
:103DC000384601F0F3FE0028264620D103E040F2F9
:103DD000004026183D460094AC19AC4209D92F4644
:103DE000384601F013FFC719A742F9D30D4887429F
:103DF00004D82846314601F0D9FE08E00A483A18AE
:103E00000A480B4B0099FCF7F3FB0020C04300214C
:103E1000091A4141084601B0F0BDC0460020021019
:103E200000E0FDEF0000081000DCFDEFDA94011067
:103E300000DC0500F0B58DB0069000200C4600298E
:103E400000D187E001F0DEFE07464349B1FBF0F008
:103E50007843081A05D041483A46FCF7C9FB30BF01
:103E6000FDE700200B903E480C9044F20000B0FBB0
:103E7000F7F078430A90A568E1682A460A430834B7
:103E800004940123002A64D002937A1E0192002236
:103E9000344C09920592089203972DE02E49099C13
:103EA0006118019A1018B0FBF7F57D430C982A466B
:103EB00001F0B4FE0646049F3968204603F09AFBE1
:103EC0000022901B7041034602994B407968561AB4
:103ED0004E412C193F68012509940797A74200D944
:103EE000154601B13546002D039F1E4C32D18BBBC8
:103EF000002008900A98079D059BDA432260099AE2
:103F0000AA1A5B41012582422E4600D8059E5B1EFF
:103F1000089B994101B90D4601B12E4606B91046DC
:103F20000B900AAA06980999FEF7D2FC21680E4A5E
:103F3000104202D003E030BF2168481CFBD00429A6
:103F400002D10B980028A9D108A0FCF7AFFD0020F2
:103F500000E018460DB0F0BD002402104694011098
:103F60000439003064320030FFFF00005B455252DC
:103F7000205D2041524D5F5543505F526561642082
:103F800072657475726E6564203020627974657331
:103F90000D00000070B50C4606468868FFF7FEFE6F
:103FA000002588B1204600F02FF968B1304621463F
:103FB000FFF740FF40B105A0FCF778FD204600F078
:103FC00017F800210D1A4541284670BD5B424F4F3E
:103FD000545D20566572696679206E65772061634D
:103FE00074697665206669726D776172653A0D0055
:103FF000F0B5A7B005460126002858D0284600F0A5
:10400000E9F8002853D0A868E96801432C46083431
:10401000022600294BD002950CAE304603F01EF864
:1040200000213046019103F01FF804A82021FCF77D
:10403000CCFE206808B30394074601E0EFB1206886
:1040400044F200018F423E4601D344F20006194972
:10405000C91B0918A74C2046324601F01FFE054631
:104060000CA82146324603F07BF8BF1B039C216855
:10407000C81B03F0BFFA002DE0D00CAD04AE2846FB
:10408000314602F055FF284602F0E3FF029C10344F
:10409000202220463146FCF7C9FD0028019E06D0AB
:1040A000204603F0DFFA04A803F0DCFA01263046CC
:1040B00027B0F0BD00240210F0B5A3B00D46029069
:1040C0000020002900D17AE03E4820A91CC81CC16C
:1040D00005AE304602F0C2FF0021304602F0C4FFB8
:1040E000A968E8680A460243009508350195002A48
:1040F0004BD0002344F20002334D1E460393049339
:104100001BE0219AF2B3229905A803F029F821981F
:104110008619019F3968304603F06CFA78680024EC
:10412000221A424139680123B14200D9234600B125
:10413000134653BB00220492209A039CE3432B6056
:10414000891B23466341012791423C4600D8039CCA
:104150005B1E049B984100B9074600B13C4604B978
:104160000A46219220AA02983146FEF7B1FB29683F
:10417000164A104202D003E030BF2968481CFBD029
:104180000429BED012A0FCF791FC05AD594E28467B
:10419000314602F0CDFE284602F05BFF009C103451
:1041A000202220463146FCF741FD0146012031B175
:1041B000204603F057FA4F4803F054FA002023B08A
:1041C000F0BDC0467883011064320030FFFF00006C
:1041D0000D000000B0B5002490B10024E143094D6A
:1041E0002960FEF75DFB4549084209D100E030BF78
:1041F0002868411CFBD0062801D1012400E00024DE
:104200002046B0BD64320030F0B587B00024E143F1
:1042100000284AD003900191029401F0F3FC044677
:104220006F34B4FBF0F14143661A224D2F463846F5
:1042300001F0ECFCC719284670308742F7D31E48BE
:104240003A18A71B44F20000401C874207D297424D
:104250000DD92B483946FCF7CBF930BFFDE717A045
:10426000394644F20002FCF7C3F930BFFDE72148AC
:10427000FF223946FCF779FD1F4804A90A4658C8B1
:1042800058C2039801F030FC1C49084202D0029C3D
:1042900001990AE005987028029C019905D11548FA
:1042A00029463A4601F0BAFC0146601A484107B077
:1042B000F0BDC0460020021000E0FDEF5B45525209
:1042C000205D204865616465722070726F6772615D
:1042D0006D2073697A65202575206269676765724C
:1042E000207468616E206275666665722025640DB3
:1042F0000A0D0A000439003084830110FFFF00001A
:1043000099940110F0B595B0039314460F460646F4
:1043100008A801F0A7F800250795069505950495CE
:10432000029454B108A801F057F8014650B147A0D3
:10433000FCF75EF94F4C0E347FE060A0FCF7B6FB53
:104340004C4C7AE008A8314601F07CFA30468F30B8
:10435000B8420BD808AC204601F072FA0190204612
:1043600001F06AFA01994018B84205D25148FCF7A9
:104370009DFB51483F4C5AE0B81B441C670807D0CE
:104380000025A91908A801F05DFA4519BD42F8D326
:104390001A98019004960595A8190690601B07903D
:1043A000002508AC204601F049FA0746E80004A9B8
:1043B0000E58324640320CA90823204601F024F85A
:1043C00078BB00200CA9095C401CB94202D1072827
:1043D000F8D926E00CA84788019800B10760039837
:1043E00087421ED808A8029932463B4601F00CF8D5
:1043F000B8B90EA80121818101750023D9430F911D
:104400001D4908310E9110931C49129114A96A4656
:10441000116002993A4600F007FF14980D998842FE
:1044200011D06D1C022DBCD31248841D14A021464E
:10443000FCF7DEF808A800F0FDFF08A801F013F86B
:10444000204615B0F0BD0024F4E7C0465B4552524B
:10445000205D20466C61736849415020696E697423
:10446000206661696C6564202D206572723A202592
:10447000640D0A000101FF805C8F0110A88A011001
:104480005B455252205D20436F756C646E2774202B
:1044900066696E642076616C696420446576696340
:1044A000654B6579202D206572723A2025640D0ACE
:1044B0000000000030970110069001105B45525239
:1044C000205D20496E76616C6964204461746120CE
:1044D00042756620417267756D656E740D0000004F
:1044E000F0B5ADB01AA848242146FCF76EFC08AD23
:1044F00028462146FCF769FC78A0FCF7D7FA284645
:10450000FFF776FD81490B6800249BB17E490A685C
:1045100082B1C0CB099C6740089D6E403E43083B7A
:1045200016B913785B1C02E01D605C6000231370F9
:1045300009680C780126022811D090B9022C12D8F3
:1045400008A8103003F08EF8099B089A7A48FCF707
:104550004FF809981B9008981A9031460CE06CA00F
:1045600007E0032C04D381480321FCF741F802E063
:1045700072A0FCF79BFA00210027F8437C4D2860CD
:10458000069107967140059108AE38463146FEF710
:104590008FF9334630331AAC21463031039121462E
:1045A00010310291083431461031049108362968DF
:1045B000704A104202D003E030BF2968481CFBD08B
:1045C00007290FD101935148006880B10368416801
:1045D00009984140089A53400B43012103B91946F9
:1045E000079D08E064480021FCF702F85EE00998A6
:1045F000089A079D29461A9B9A422A4600D93A46AC
:104600001B9DA842079B00D93B46A84200D01A46F2
:10461000002A42D10598014301293ED103CE01432E
:10462000083ED1B3564800273946FBF7E1FF08A9F9
:104630003846FFF741FD002846D0049803F012F8F1
:10464000099B089A3C48FBF7D3FF32684E4801218A
:10465000824200D33946706800B139460029079E6E
:1046600034D009991B9108991A9122606060029CCC
:10467000049D0FCD0FC40FCD0FC4019C039D0FCC23
:104680000FC5464800252946FBF7B2FF1AA9284660
:10469000FFF780FC00B343480CE038480021FBF7EB
:1046A000A7FF099B089A2448FBF7A2FF079E0698DC
:1046B00018B13948FCF7FAF903E03648FCF7F6F987
:1046C000002630462DB0F0BD2E488CE72F48002143
:1046D0002F4BFBF78DFFEAE73148EFE75B424F4F87
:1046E000545D20416374697665206669726D7761F7
:1046F000726520696E746567726974792063686594
:10470000636B3A0D000000000039003090790030F2
:104710005B424F4F545D2041637469766520666942
:10472000726D7761726520736C6F74206973206598
:104730006D7074790D000000F89601105B455252BF
:10474000205D20416374697665206669726D7761CA
:10475000726520696E746567726974792063686533
:10476000636B206661696C65640D000093960110AF
:1047700064320030FFFF00000F97011068960110AF
:10478000DD9501103796011001DC0500C796011078
:1047900000DC0500209801104098011008960110D7
:1047A000D0970110F0970110F0B587B00C46054680
:1047B00003A800F057FE2748286027482060274FAD
:1047C000FE1C286800283FD003A800F005FE3E46E6
:1047D0000936C8BB03AE2249304601F033F83046F3
:1047E00001F02EF80290304601F026F801902F6873
:1047F0003046394601F026F8B7FBF0F7474320680A
:104800000090411E304601F01DF806462868B84267
:1048100016D100230098401E194699413246FBF7F5
:104820005FFE401C70430299019A52182168914220
:1048300006D8814204D103A800F0FCFD002603E065
:1048400003A800F0F7FD054E03A800F00CFE30466B
:1048500007B0F0BD00000210002002100601FF802A
:10486000189B0110B0B50E4800F02EFE0D480C301C
:104870000021CC430325016859B1001D6D1C102D8A
:10488000F9D3FBF799FD18210160054800F01CFEE3
:1048900004E00460024800F017FE2C462046B0BD3C
:1048A000603600302432003082B080B582B005938B
:1048B000049220B104AA01920348FBF792FE02B0D1
:1048C00080BC01BC02B00047C033003026490968F3
:1048D00001B108477047C04636480068016808477C
:1048E00034484068016808473248806801680847D2
:1048F0003048C068016808472E48006901680847C9
:104900002C484069016808472A48806901680847BF
:104910002848C0690168084710B582B0044601F014
:10492000C5FA00212448234A136873B1121D001DE3
:10493000491C0829F8D301F0F7FA00226846026002
:1049400007480849134601F0ABFE1460046801F003
:10495000EBFA054805490160204602B010BDC0468B
:1049600020010180D5900110883800307149011074
:1049700010B582B0044601F099FA00210D480E4AA4
:104980001368A3420ED0121D001D491C0829F7D33D
:1049900001F0CAFA002268460260084808A11346DE
:1049A00001F07EFE0021016002B010BC01BC864611
:1049B00001F0BABA68380030888A0110010101801C
:1049C000547269656420746F206672656520696E33
:1049D00076616C696420435468756E6B456E7472C1
:1049E0007900000010B50C46002022B11C4802F0EE
:1049F0008FFF2070012010BD1C20C0437047152080
:104A0000C043704700207047F0B581B014460D4692
:104A10004AB1134E27462978304603F03FF87F1EEF
:104A20006D1C002FF7D1204601B0F0BD012070476A
:104A300070B51D46044608480830206007480068E5
:104A400038B9074E304602F077FF3046294602F06B
:104A5000E1FE204670BDC046A88E0110AC7A003041
:104A6000E4790030FBF7DDBCF0B581B004463E20B0
:104A7000205C26463E3620B1206C401C2064002578
:104A80005EE000202064204600F0D4F905460028AE
:104A900056D1E068002856D014214556E06A08B186
:104AA000E9B206E020461830FFF736FFE062E16821
:104AB000097DAA00264B1B689A18106448B200288A
:104AC00008DBC108234A0A401F2101400120884019
:104AD00021495050606940F20011FEF7FDFA60690B
:104AE000FEF736FB0F200705A07C0006000F01D063
:104AF00032780CE01948016801220029104600D1E3
:104B000008461749096801B90A46024032701AB1CD
:104B100001202064002505E0207A12A1FFF7C4FEE1
:104B20003278174D207A17A1FFF7BEFE2069384270
:104B300001D0606802E00948C0686060211D08601B
:104B4000284601B0F0BD13481349DA2201F004FDF4
:104B500008ED00E0FCFFFF1F00E100E02C34003016
:104B6000443400304661696C20746F20696E69744A
:104B700069616C697A6520636172640A00000000F3
:104B80005FF0FFFF696E69742063617264203D20ED
:104B900025640A00BC8F0110D18F0110F0B587B0D9
:104BA0001D46174606910168C96B0D9C6A46546004
:104BB0000C9E166004903A46884701467E4A501C77
:104BC00000295DD03E200499085C0028104657D08B
:104BD00005950321069D2A460A40784B3046184029
:104BE00010430F2212072A4001239B075B1BB3428D
:104BF00011D309078A420ED168B9780A0599CA0506
:104C00000243700AE3050343049840690699FEF7DE
:104C1000EBFAA0BB34E03146214300200029059A7D
:104C20003B462DD00393580A0592D2050243700AE1
:104C3000E1050143600A084360494D1C00B935464F
:104C40006B0A049840695E4F3946FEF7CDFAB0B959
:104C50003946069F38462A46FCF738F80020761B6E
:104C600001464141491E844131462143039B5B1962
:104C7000059A42417F1906970029D3D100E0DE480A
:104C800007B0F0BD017270473E21415C002001B9C0
:104C900049487047B0B504463E20215C25463E3564
:104CA000002059B1206C022801D3401E06E0E068C4
:104CB00010B1406803F0F8F900202870206400204B
:104CC000B0BD0000F0B587B01F4614460D46016820
:104CD000096C0D9E6A4656600C9B04931360059008
:104CE00022463B46884733460146334A501C00293A
:104CF0005FD03E200599085C0028104659D00693E5
:104D00002646039703272A463A402C49049C20460E
:104D1000084010430F2212072A4001239B0729460F
:104D20005B1B2546A34211D33B079A420ED168B9BB
:104D3000700A039AD2050243680A069BDB05034307
:104D400005984069FEF7AEFD90BB32E02F462A463B
:104D5000069B1A430020002A039C2AD0780ADA0511
:104D600002430693580A1043144A551C00B93D46A5
:104D700013482A460491FBF7A9FF700AE205024393
:104D80006B0A059840690E49FEF78CFD80B900203A
:104D90007F1B01464141491E069B83413946194309
:104DA00076194441049A521900291146D6D100E0DF
:104DB000914807B0F0BDC04674ECFFFFFF01000052
:104DC000683600304169184A88188B58012213420E
:104DD00005D0026040F600000B5813430B50134BF4
:104DE000C818C958114203D0114901220A70026043
:104DF000026840F200110A4200D0016001680222FC
:104E0000114201D002210160026842F200010A420F
:104E100000D00160026841F200010A4202D002683B
:104E20000A4302607047C046080800002C080000D2
:104E30008D790030F0B581B00446007A51A1FFF7BA
:104E400033FD3020205E594902F080FA0090322074
:104E5000205E574902F07AFA06463420205E554912
:104E600002F074FA07463620205E534902F06EFACB
:104E700005460098314602F049FA0646384629466A
:104E800002F044FA0146304602F040FA0090382021
:104E9000205E4A4902F05AFA06463A20205E484906
:104EA00002F054FA07463C20205E464902F04EFAD2
:104EB00005463046394602F029FA294602F026FA1C
:104EC0000146009802F022FA0546401C44D03E49B3
:104ED000284601F05DF8E060002845D00068A8424F
:104EE00048D13020205E314902F068FA3220205E3D
:104EF0002F4902F063FA3420205E2E4902F05EFA58
:104F00003620205E2C4902F059FA3820205E2B49C9
:104F100002F054FA3A20205E294902F04FFA3C2070
:104F2000205E284902F04AFA31482E46064003F036
:104F3000C1F825616661E068006903F0C1F8E268C4
:104F4000121D07CA03F0C2F8E068406803F0C4F815
:104F500003F0C8F8002005E02068C26C012120465B
:104F60009047254801B0F0BD2248204940F2D812B0
:104F700001F0F2FA40F2D810421C14A01B4901F0D3
:104F8000EBFAC0465344204D504620536574746973
:104F90006E67202620456E61626C6520534420496F
:104FA0005020436C6F636B0A00000000FC8401100A
:104FB000208501104485011068850110D8840110F6
:104FC000B484011090840110508A01105F736468EA
:104FD0005F6D6F64696E69742D3E6D6F646E616D97
:104FE00065203D3D2073645F6D6F6400D18F0110BB
:104FF000E0FF0FFFBC8F01105FF0FFFF0021416059
:105000000172C16041610162114A42628162114ACA
:105010008261C162104A82871D4B08330360CB4313
:1050200003611346F53303861346F633438613466E
:10503000F73383861346F833C3861346FA33038760
:10504000F9324287C0613E22815401647047C046F4
:10505000C54D0110695401100D03000080B500F02A
:1050600005F880BC02BC8E4600F0F0BB10B50446CB
:105070000748083020603E20205C10B12046FFF732
:1050800009FEE06AFFF722FC0020E062204610BD26
:10509000048F01101520C04370471820C243002020
:1050A00001B9104670471520C04370470168896AEE
:1050B00008470020704701680B690021012218474A
:1050C00001688969084703681B69184770470168C8
:1050D0000B6900210A4618471520C043704700009D
:1050E00010B50D480078BFF35F8F0121084201D051
:1050F0000A4810BD084800F0CFFB0028F8D0074C44
:105100002046FFF77BFF0648064A214600F0C2FB17
:10511000014800F0EBFBEBE754360030A8380030D4
:105120006D500110000001100020704700207047F2
:105130007047000070B5054600240F281ADCA8004F
:1051400017490C580E18022D14DC601C12D1284689
:1051500000F02CF8044660B9284600F029F804460F
:1051600038B910480078BFF35F8F0F4C0121084217
:1051700002D03460204670BD0A4800F08DFB002844
:10518000F7D040F20C10411CE1204302064C2046AF
:1051900040F20C12FFF74CFC024800F0A7FBE8E7D6
:1051A0002432003050360030A438003000207047E0
:1051B0000020704710B5047D022C07D0012C0BD1C4
:1051C000019CA64610BC01B000F092BA019CA64614
:1051D00010BC01B000F0D6BA0020C04310BD0000E2
:1051E00070B5C1B10A68437B63B100232024D507A1
:1051F00003D0651E0126AE403343641E5208002CC6
:10520000F5D100E0134682685A400A600168896857
:105210008847002070BD1648164940F2091201F077
:105220009BF9C0467047000070B582B00546069CE9
:10523000CCB168682060684604602846FFF7BAFF72
:10524000064620B1286881682846884708E0284635
:105250002146FFF7C5FF002610B100212160064658
:10526000304602B070BD02480249972201F074F93D
:10527000379001104390011000F0E8BA7047007BAE
:1052800070470000F0B581B00E460446174800F0A4
:105290001BF9174805680DE0AF6857B13846FBF7B2
:1052A000F3FCB04205D1384621463246FBF7BEFC3E
:1052B00088B16D68002DEFD1072E05D10DA0072212
:1052C0002146FBF7B3FC50B1084800F0FDF800257B
:1052D000284601B0F0BD054800F0F6F8F8E70348AD
:1052E00000F0F2F805480568F2E7C0469038003053
:1052F0008C38003064656661756C740098380030D5
:10530000B0B505464068002438B1FFF7B8FF012862
:1053100003D16868041F00B904462046B0BDB0B58B
:1053200005464068002430B1FFF7A9FF18B9686846
:10533000041F00B904462046B0BD4168012001B9F0
:105340000846704780B54168002031B10846FFF734
:1053500096FF01460020401A484180BD0068704712
:1053600070B50E4604460025056045600EA1304626
:10537000FBF74CFC301802E02F2A06D06D1C4119B7
:105380002160425D002AF7D101E0491C21602DB166
:105390002946FFF777FF6060204670BD03A006A195
:1053A0002A2201F0D9F8C0462F0000006C656E205B
:1053B000213D2030000000002E5C6D6265642D6F81
:1053C000735C706C6174666F726D5C46696C65507D
:1053D0006174682E6370700070B50546204E3046CB
:1053E00000F072F8284602F083FE0446284602F0D8
:1053F00085FE00F02DFAE860304600F065F80020E8
:10540000C04304B9204670BDF0B581B01C461546B6
:105410000E460746124800F057F8384629463246ED
:10542000234600F0AEFD04460D4800F04DF820463E
:1054300001B0F0BDB0B50546094800F045F8284672
:1054400002F062FE0021CC4300B90446E86808B1CE
:1054500000F0FAF9024800F037F82046B0BDC04627
:105460009C38003070477047B0B5436883B1C2685C
:10547000056901242C402146114349B18168681017
:1054800018180CB103689A58B0BC08BC9E46104767
:10549000B0BD000070B50D4600240126314205D094
:1054A000084802F00FFB00B906463446E80606D568
:1054B00010252543034802F00DFB00B12C46204681
:1054C00070BDC046E479003080B50146006808B977
:1054D000086818B1091D884203D180BD081D086005
:1054E00080BD02A00AA16C2201F036F870203D3D7B
:1054F000207265696E746572707265745F63617342
:10550000743C54202A3E28265F646174612900009F
:105510002E2F6D6265642D6F735C706C6174666FA5
:10552000726D2F53696E676C65746F6E5074722E56
:1055300068000000002140F200207047002140F286
:1055400000207047002140F200207047002140F207
:10555000002070473E21425C0021C9431AB14068D7
:1055600040020021704701487047C04674ECFFFFBD
:1055700000A070474E5553440000000001207047C2
:10558000F0B585B01D46164604460068416A2046BF
:10559000884702460B4630462946FAF7A1FF1343D7
:1055A000002743BB019603950B9D0A9E2068416A24
:1055B0002046884702460B46029630460495294607
:1055C000FAF78EFF1343B3B9029801994618049D68
:1055D000039845412068816B2046884701220023BB
:1055E00086421746284600D91F46884200D91A46E7
:1055F000884200D01746384605B0F0BDF0B581B0FE
:105600001C46174605460068016B28468847024637
:105610000B4638462146FAF763FF134300261BBBAF
:1056200007980699CF19444100267A1E2346B341B4
:105630002868016B2846884702460B4638462146B3
:10564000FAF74EFF13437BB92868816B28468847D9
:10565000012200238742164600D91E468C4200D9FB
:105660001A468C4200D01646304601B0F0BD0020EC
:10567000C0437047F0B585B01D4616460446006825
:10568000816A2046884702460B4630462946FAF78B
:1056900027FF1343002743BB019603950B9D0A9EEA
:1056A0002068816A2046884702460B4602963046AB
:1056B00004952946FAF714FF1343B3B902980199E8
:1056C0004618049D039845412068816B2046884711
:1056D0000122002386421746284600D91F468842E9
:1056E00000D91A46884200D01746384605B0F0BDAA
:1056F000F0B587B005910C9CF4B3114619430194A1
:105700002568A1B30492069301690391007B02907E
:1057100000231F460598C65C029860B1002108224C
:10572000F00703D0501E012484402143521E760806
:10573000002AF5D100E0314600225B1C57410126CA
:1057400004988342304600D31046069CA74200D3FB
:105750001646069A974200D030462A0EC9B25140EA
:105760008900039A51582D024D400028D2D101984A
:105770000560002007B0F0BD2D482E4940F2CF1241
:1057800000F0EAFEF0B587B0144605910C9A002AA5
:1057900045D02146194301921568D9B3007B029088
:1057A0000026224F06960493039405980699405CC0
:1057B000029961B100210822C40703D0541E0123BD
:1057C000A3401943521E4008002AF5D100E00146CB
:1057D000090669400820049B039C4D002A467A4034
:1057E000002900DA1546401EFF2108422946F4D15F
:1057F00000220699491C564101200691A14201460A
:1058000000D311469E4200D310469E4200D001466E
:105810000029CAD101980560002007B0F0BD0448F6
:10582000044940F2A31200F097FEC046B71DC10420
:10583000379001104390011002F06CBC02F070BC74
:1058400002F074BC02F078BCFAF7EBBDFAF7E9BDE0
:1058500010B582B00446FAF7B3FD08B102B010BD2E
:10586000002368460360024802A1224600F018FFA8
:105870001F0101804F70657261746F72206E6577D1
:105880005B5D206F7574206F66206D656D6F72793A
:105890000D0A00000120704780B5014603780322FD
:1058A00013400020012B04D00B781A4012B1012ABA
:1058B00005D180BD022003430B70012080BD02A0F2
:1058C0001449094A00F048FE286775617264202671
:1058D000204358415F47554152445F4D41534B2946
:1058E000203D3D2030000000E405000080B5017837
:1058F00003220A40022A05D1FC22114001220A4358
:10590000027080BD02480349034A00F025FEC046EC
:105910003992011070920110ED05000010B5074892
:1059200001687622064B10C910C3521EFBD10449F0
:10593000016010BC01BC864601F0F0B908ED00E042
:105940000030003000F090BAFEE710B5FFF7F2FB30
:10595000092430B10168896A8847002800DB10BD3E
:105960004442FAF729FD04600020C04310BD00F056
:1059700003BD0000B0B50D4604462149FBF728FAE7
:10598000B8B120492046FBF723FAA0B11E492046B2
:10599000FBF71EFA88B12078402814D16078A178EE
:1059A00009020143E07822791202024314040C43F5
:1059B00007E0002402E0012400E002242046FFF773
:1059C000B9FB2046B0BD0220A90706D40120690713
:1059D00003D42807C1170920084040F200210143E1
:1059E0000C22154200D008462A0240F20041114024
:1059F00001432046B0BC04BC964601F0FDBBC04646
:105A0000788F01107F8F0110708F0110002200F03D
:105A1000C4BC10B514460246002C0BDB00203CB180
:105A20001046224602F0F9FA0021C943002807DB9C
:105A3000211A05E0FAF7C0FC162101600020C143DD
:105A4000084610BD80B582B001A908700120024649
:105A500002F0E3FA02B080BD80B512480068016828
:105A6000C96A884780BDC04680B50E480068016895
:105A7000896A884780BDC0460A480068016889680D
:105A80000847C04670B582B0014606480068046801
:105A9000646900256E467560069D3560A04702B0BA
:105AA00070BDC046EC380030F0B581B00022B1B115
:105AB0000022D2430B4C009206785640491E08251E
:105AC00072081746674001231E4200D03A466D1EF9
:105AD0001646F5D1401C0029EED1009842401046F0
